:0A00AB00AF82EF6004001F80F9220D
:0300A500750800DB
:1000B500AF8274085F24FF92A774045F24FF92A6A1
:1000C50074025F24FF92A5530701EF24FF92A4C297
:1000D500A17582011200ABD2A17582051200ABC2D7
:1000E500A17582640200ABAF82C2A0EFC4540FF5C4
:1000F50082C0071200B5D007740F5FF582C00712E2
:1001050000B5D007BF01067582D00200AB758232FB
:100115000200ABAF82D2A0EFC4540FF582C0071224
:1001250000B5D007740F5FF5821200B575823202F3
:1001350000AB75A00075A0FF7582501200ABC2A080
:10014500C2A17582031200B57582941200AB758247
:10015500031200B57582941200AB7582031200B5C7
:100165007582961200AB7582021200B575829612E1
:1001750000AB7582281200EC75820C1200EC7582BA
:10018500011200EC74044508F5820200ECAD82AE64
:1001950083AFF08D828E838FF01202BEFC60188CC7
:1001A500820DBD00010EC007C006C005120118D0A2
:1001B50005D006D00780DC22AF82BF010AAF0974E3
:1001C500802FF5820200ECAF0974C02FF582020082
:1001D500ECAF82850A09C0071201BDD007AD0B7EC1
:1001E50000AB0A7C00EB2DFDEC3EFEC374109D7444
:1001F500808EF063F08095F05008AE0A7410C39EAF
:10020500F50BAE0B8E051EED6010758220C007C084
:1002150006120118D006D00780EA850A098F8202E6
:1002250001BD7582180200EC75821C0200EC4308C2
:100235000274044508F5820200EC5308FD74044578
:1002450008F5820200EC43080174044508F58202B2
:0E02550000EC5308FE74044508F5820200EC2C
:0300000002004CAF
:100008000000E2FBEAF2802C0000E0FBEAF080242A
:10001800E6B50202EBF62200E2B50202EBF222009C
:10002800E0B50202EBF02230F6E0A88220F5D3EA30
:10003800C6F582228B822230F6E6A88220F5D98086
:01004800CFE8
:0300A8000200490A
:030049000202842C
:100263007E007F00758205C007C0061200ABD00672
:10027300D0070EBE00010FC3EE9420EF944E40E46E
:10028300221201371202331202579002DE75F080F8
:100293001201927F00BF0400500DC00712022D12FD
:1002A3000263D0070F80EE7F00BF040050E5C00754
:0B02B300120227120263D0070F80EE3A
:0C02DE0048492042554444494553210042
:06007B00E478FFF6D8FD59
:100059007900E94400601B7A009002EA780175A0F2
:1000690000E493F2A308B8000205A0D9F4DAF27506
:02007900A0FFE6
:100081007800E84400600A790175A000E4F309D81A
:10009100FC7800E84400600C7900900001E4F0A3D2
:0400A100D8FCD9FAB4
:0D004C0075810B1202DAE5826003020049A3
:1002BE0020F71430F6148883A88220F507E6A88369
:1002CE0075830022E280F7E49322E02275820022F9
:00000001FF
